{
  "_format": "hh-sol-artifact-1",
  "contractName": "patientInfo",
  "sourceName": "contracts/patient.sol",
  "abi": [
    {
      "inputs": [],
      "stateMutability": "nonpayable",
      "type": "constructor"
    },
    {
      "anonymous": false,
      "inputs": [
        {
          "indexed": false,
          "internalType": "address",
          "name": "p",
          "type": "address"
        },
        {
          "indexed": false,
          "internalType": "string",
          "name": "name",
          "type": "string"
        },
        {
          "indexed": false,
          "internalType": "string",
          "name": "file",
          "type": "string"
        },
        {
          "indexed": true,
          "internalType": "uint256",
          "name": "date",
          "type": "uint256"
        }
      ],
      "name": "addFile",
      "type": "event"
    },
    {
      "anonymous": false,
      "inputs": [
        {
          "indexed": true,
          "internalType": "address",
          "name": "p",
          "type": "address"
        },
        {
          "indexed": true,
          "internalType": "uint256",
          "name": "date",
          "type": "uint256"
        }
      ],
      "name": "disablePermission",
      "type": "event"
    },
    {
      "anonymous": false,
      "inputs": [
        {
          "indexed": true,
          "internalType": "address",
          "name": "p",
          "type": "address"
        },
        {
          "indexed": true,
          "internalType": "uint256",
          "name": "date",
          "type": "uint256"
        }
      ],
      "name": "givePermission",
      "type": "event"
    },
    {
      "inputs": [
        {
          "internalType": "string",
          "name": "_fileName",
          "type": "string"
        },
        {
          "internalType": "string",
          "name": "_file",
          "type": "string"
        }
      ],
      "name": "addPatientRecord",
      "outputs": [
        {
          "internalType": "bool",
          "name": "",
          "type": "bool"
        }
      ],
      "stateMutability": "nonpayable",
      "type": "function"
    },
    {
      "inputs": [
        {
          "internalType": "address",
          "name": "",
          "type": "address"
        },
        {
          "internalType": "uint256",
          "name": "",
          "type": "uint256"
        }
      ],
      "name": "documentInfo",
      "outputs": [
        {
          "internalType": "string",
          "name": "documentName",
          "type": "string"
        },
        {
          "internalType": "string",
          "name": "files",
          "type": "string"
        }
      ],
      "stateMutability": "view",
      "type": "function"
    },
    {
      "inputs": [],
      "name": "getAllFile",
      "outputs": [
        {
          "components": [
            {
              "internalType": "string",
              "name": "documentName",
              "type": "string"
            },
            {
              "internalType": "string",
              "name": "files",
              "type": "string"
            }
          ],
          "internalType": "struct patientInfo.patientDocumentInfo[]",
          "name": "",
          "type": "tuple[]"
        }
      ],
      "stateMutability": "view",
      "type": "function"
    },
    {
      "inputs": [
        {
          "internalType": "address",
          "name": "_patientAddress",
          "type": "address"
        }
      ],
      "name": "getPatientMedicalRecord",
      "outputs": [
        {
          "components": [
            {
              "internalType": "string",
              "name": "documentName",
              "type": "string"
            },
            {
              "internalType": "string",
              "name": "files",
              "type": "string"
            }
          ],
          "internalType": "struct patientInfo.patientDocumentInfo[]",
          "name": "",
          "type": "tuple[]"
        }
      ],
      "stateMutability": "view",
      "type": "function"
    },
    {
      "inputs": [
        {
          "internalType": "address",
          "name": "_address",
          "type": "address"
        }
      ],
      "name": "grantPermission",
      "outputs": [
        {
          "internalType": "bool",
          "name": "",
          "type": "bool"
        }
      ],
      "stateMutability": "nonpayable",
      "type": "function"
    },
    {
      "inputs": [
        {
          "internalType": "address",
          "name": "",
          "type": "address"
        }
      ],
      "name": "patientInformation",
      "outputs": [
        {
          "internalType": "string",
          "name": "name",
          "type": "string"
        },
        {
          "internalType": "bool",
          "name": "isRegistered",
          "type": "bool"
        }
      ],
      "stateMutability": "view",
      "type": "function"
    },
    {
      "inputs": [
        {
          "internalType": "address",
          "name": "",
          "type": "address"
        },
        {
          "internalType": "address",
          "name": "",
          "type": "address"
        }
      ],
      "name": "permInfo",
      "outputs": [
        {
          "internalType": "bool",
          "name": "",
          "type": "bool"
        }
      ],
      "stateMutability": "view",
      "type": "function"
    },
    {
      "inputs": [
        {
          "internalType": "string",
          "name": "_name",
          "type": "string"
        }
      ],
      "name": "registerPatient",
      "outputs": [
        {
          "internalType": "bool",
          "name": "",
          "type": "bool"
        }
      ],
      "stateMutability": "nonpayable",
      "type": "function"
    },
    {
      "inputs": [
        {
          "internalType": "address",
          "name": "_personAddress",
          "type": "address"
        }
      ],
      "name": "removePermission",
      "outputs": [
        {
          "internalType": "bool",
          "name": "",
          "type": "bool"
        }
      ],
      "stateMutability": "nonpayable",
      "type": "function"
    }
  ],
  "bytecode": "0x608060405234801561001057600080fd5b50336000806101000a81548173ffffffffffffffffffffffffffffffffffffffff021916908373ffffffffffffffffffffffffffffffffffffffff1602179055506118d0806100606000396000f3fe608060405234801561001057600080fd5b50600436106100935760003560e01c806390760df31161006657806390760df314610159578063ab33ddf81461018a578063bf674e5f146101a8578063e074bb47146101d8578063f880cb391461020857610093565b806309c8e700146100985780632d8e3278146100c95780636c3a2856146100f9578063869c9eaf14610129575b600080fd5b6100b260048036038101906100ad919061102d565b610238565b6040516100c092919061110e565b60405180910390f35b6100e360048036038101906100de919061102d565b6102f1565b6040516100f0919061113e565b60405180910390f35b610113600480360381019061010e9190611159565b6103d5565b604051610120919061113e565b60405180910390f35b610143600480360381019061013e91906112ce565b610404565b604051610150919061113e565b60405180910390f35b610173600480360381019061016e919061134d565b6104a6565b60405161018192919061138d565b60405180910390f35b6101926105f7565b60405161019f9190611514565b60405180910390f35b6101c260048036038101906101bd919061102d565b610869565b6040516101cf9190611514565b60405180910390f35b6101f260048036038101906101ed919061102d565b610bad565b6040516101ff919061113e565b60405180910390f35b610222600480360381019061021d9190611536565b610d61565b60405161022f919061113e565b60405180910390f35b600160205280600052604060002060009150905080600001805461025b906115dd565b80601f0160208091040260200160405190810160405280929190818152602001828054610287906115dd565b80156102d45780601f106102a9576101008083540402835291602001916102d4565b820191906000526020600020905b8154815290600101906020018083116102b757829003601f168201915b5050505050908060010160009054906101000a900460ff16905082565b60006001600360003373ffffffffffffffffffffffffffffffffffffffff1673ffffffffffffffffffffffffffffffffffffffff16815260200190815260200160002060008473ffffffffffffffffffffffffffffffffffffffff1673ffffffffffffffffffffffffffffffffffffffff16815260200190815260200160002060006101000a81548160ff021916908315150217905550428273ffffffffffffffffffffffffffffffffffffffff167f225c76c342470ddcd18cbce7ba4cebcf8cc3fcb42a3c86cd6051ade04beb2a1b60405160405180910390a360019050919050565b60036020528160005260406000206020528060005260406000206000915091509054906101000a900460ff1681565b6000604051806040016040528083815260200160011515815250600160003373ffffffffffffffffffffffffffffffffffffffff1673ffffffffffffffffffffffffffffffffffffffff1681526020019081526020016000206000820151816000019080519060200190610479929190610efe565b5060208201518160010160006101000a81548160ff02191690831515021790555090505060019050919050565b600260205281600052604060002081815481106104c257600080fd5b9060005260206000209060020201600091509150508060000180546104e6906115dd565b80601f0160208091040260200160405190810160405280929190818152602001828054610512906115dd565b801561055f5780601f106105345761010080835404028352916020019161055f565b820191906000526020600020905b81548152906001019060200180831161054257829003601f168201915b505050505090806001018054610574906115dd565b80601f01602080910402602001604051908101604052809291908181526020018280546105a0906115dd565b80156105ed5780601f106105c2576101008083540402835291602001916105ed565b820191906000526020600020905b8154815290600101906020018083116105d057829003601f168201915b5050505050905082565b60606000600260003373ffffffffffffffffffffffffffffffffffffffff1673ffffffffffffffffffffffffffffffffffffffff16815260200190815260200160002080549050905060008167ffffffffffffffff81111561065c5761065b6111a3565b5b60405190808252806020026020018201604052801561069557816020015b610682610f84565b81526020019060019003908161067a5790505b50905060005b8281101561086057600260003373ffffffffffffffffffffffffffffffffffffffff1673ffffffffffffffffffffffffffffffffffffffff16815260200190815260200160002081815481106106f4576106f361160f565b5b906000526020600020906002020160405180604001604052908160008201805461071d906115dd565b80601f0160208091040260200160405190810160405280929190818152602001828054610749906115dd565b80156107965780601f1061076b57610100808354040283529160200191610796565b820191906000526020600020905b81548152906001019060200180831161077957829003601f168201915b505050505081526020016001820180546107af906115dd565b80601f01602080910402602001604051908101604052809291908181526020018280546107db906115dd565b80156108285780601f106107fd57610100808354040283529160200191610828565b820191906000526020600020905b81548152906001019060200180831161080b57829003601f168201915b5050505050815250508282815181106108445761084361160f565b5b6020026020010181905250806108599061166d565b905061069b565b50809250505090565b606060011515600360008473ffffffffffffffffffffffffffffffffffffffff1673ffffffffffffffffffffffffffffffffffffffff16815260200190815260200160002060003373ffffffffffffffffffffffffffffffffffffffff1673ffffffffffffffffffffffffffffffffffffffff16815260200190815260200160002060009054906101000a900460ff1615151461093b576040517f08c379a000000000000000000000000000000000000000000000000000000000815260040161093290611728565b60405180910390fd5b6000600260008473ffffffffffffffffffffffffffffffffffffffff1673ffffffffffffffffffffffffffffffffffffffff16815260200190815260200160002080549050905060008167ffffffffffffffff81111561099e5761099d6111a3565b5b6040519080825280602002602001820160405280156109d757816020015b6109c4610f84565b8152602001906001900390816109bc5790505b50905060005b82811015610ba257600260008673ffffffffffffffffffffffffffffffffffffffff1673ffffffffffffffffffffffffffffffffffffffff1681526020019081526020016000208181548110610a3657610a3561160f565b5b9060005260206000209060020201604051806040016040529081600082018054610a5f906115dd565b80601f0160208091040260200160405190810160405280929190818152602001828054610a8b906115dd565b8015610ad85780601f10610aad57610100808354040283529160200191610ad8565b820191906000526020600020905b815481529060010190602001808311610abb57829003601f168201915b50505050508152602001600182018054610af1906115dd565b80601f0160208091040260200160405190810160405280929190818152602001828054610b1d906115dd565b8015610b6a5780601f10610b3f57610100808354040283529160200191610b6a565b820191906000526020600020905b815481529060010190602001808311610b4d57829003601f168201915b505050505081525050828281518110610b8657610b8561160f565b5b602002602001018190525080610b9b9061166d565b90506109dd565b508092505050919050565b600060011515600360003373ffffffffffffffffffffffffffffffffffffffff1673ffffffffffffffffffffffffffffffffffffffff16815260200190815260200160002060008473ffffffffffffffffffffffffffffffffffffffff1673ffffffffffffffffffffffffffffffffffffffff16815260200190815260200160002060009054906101000a900460ff16151514610c7f576040517f08c379a0000000000000000000000000000000000000000000000000000000008152600401610c76906117ba565b60405180910390fd5b6000600360003373ffffffffffffffffffffffffffffffffffffffff1673ffffffffffffffffffffffffffffffffffffffff16815260200190815260200160002060008473ffffffffffffffffffffffffffffffffffffffff1673ffffffffffffffffffffffffffffffffffffffff16815260200190815260200160002060006101000a81548160ff021916908315150217905550428273ffffffffffffffffffffffffffffffffffffffff167ff0943d729fe6dc620181426ddf39197773c87301d6f5cd471a6013f1caf3842f60405160405180910390a360019050919050565b600060011515600160003373ffffffffffffffffffffffffffffffffffffffff1673ffffffffffffffffffffffffffffffffffffffff16815260200190815260200160002060010160009054906101000a900460ff16151514610df9576040517f08c379a0000000000000000000000000000000000000000000000000000000008152600401610df090611826565b60405180910390fd5b60006040518060400160405280858152602001848152509050600260003373ffffffffffffffffffffffffffffffffffffffff1673ffffffffffffffffffffffffffffffffffffffff1681526020019081526020016000208190806001815401808255809150506001900390600052602060002090600202016000909190919091506000820151816000019080519060200190610e97929190610efe565b506020820151816001019080519060200190610eb4929190610efe565b505050427f13214a75b6d213965118d9df9e16e11f7f1d30203aebf119661eac55ff413168338686604051610eeb93929190611855565b60405180910390a2600191505092915050565b828054610f0a906115dd565b90600052602060002090601f016020900481019282610f2c5760008555610f73565b82601f10610f4557805160ff1916838001178555610f73565b82800160010185558215610f73579182015b82811115610f72578251825591602001919060010190610f57565b5b509050610f809190610f9e565b5090565b604051806040016040528060608152602001606081525090565b5b80821115610fb7576000816000905550600101610f9f565b5090565b6000604051905090565b600080fd5b600080fd5b600073ffffffffffffffffffffffffffffffffffffffff82169050919050565b6000610ffa82610fcf565b9050919050565b61100a81610fef565b811461101557600080fd5b50565b60008135905061102781611001565b92915050565b60006020828403121561104357611042610fc5565b5b600061105184828501611018565b91505092915050565b600081519050919050565b600082825260208201905092915050565b60005b83811015611094578082015181840152602081019050611079565b838111156110a3576000848401525b50505050565b6000601f19601f8301169050919050565b60006110c58261105a565b6110cf8185611065565b93506110df818560208601611076565b6110e8816110a9565b840191505092915050565b60008115159050919050565b611108816110f3565b82525050565b6000604082019050818103600083015261112881856110ba565b905061113760208301846110ff565b9392505050565b600060208201905061115360008301846110ff565b92915050565b600080604083850312156111705761116f610fc5565b5b600061117e85828601611018565b925050602061118f85828601611018565b9150509250929050565b600080fd5b600080fd5b7f4e487b7100000000000000000000000000000000000000000000000000000000600052604160045260246000fd5b6111db826110a9565b810181811067ffffffffffffffff821117156111fa576111f96111a3565b5b80604052505050565b600061120d610fbb565b905061121982826111d2565b919050565b600067ffffffffffffffff821115611239576112386111a3565b5b611242826110a9565b9050602081019050919050565b82818337600083830152505050565b600061127161126c8461121e565b611203565b90508281526020810184848401111561128d5761128c61119e565b5b61129884828561124f565b509392505050565b600082601f8301126112b5576112b4611199565b5b81356112c584826020860161125e565b91505092915050565b6000602082840312156112e4576112e3610fc5565b5b600082013567ffffffffffffffff81111561130257611301610fca565b5b61130e848285016112a0565b91505092915050565b6000819050919050565b61132a81611317565b811461133557600080fd5b50565b60008135905061134781611321565b92915050565b6000806040838503121561136457611363610fc5565b5b600061137285828601611018565b925050602061138385828601611338565b9150509250929050565b600060408201905081810360008301526113a781856110ba565b905081810360208301526113bb81846110ba565b90509392505050565b600081519050919050565b600082825260208201905092915050565b6000819050602082019050919050565b600082825260208201905092915050565b600061140c8261105a565b61141681856113f0565b9350611426818560208601611076565b61142f816110a9565b840191505092915050565b600060408301600083015184820360008601526114578282611401565b915050602083015184820360208601526114718282611401565b9150508091505092915050565b600061148a838361143a565b905092915050565b6000602082019050919050565b60006114aa826113c4565b6114b481856113cf565b9350836020820285016114c6856113e0565b8060005b8581101561150257848403895281516114e3858261147e565b94506114ee83611492565b925060208a019950506001810190506114ca565b50829750879550505050505092915050565b6000602082019050818103600083015261152e818461149f565b905092915050565b6000806040838503121561154d5761154c610fc5565b5b600083013567ffffffffffffffff81111561156b5761156a610fca565b5b611577858286016112a0565b925050602083013567ffffffffffffffff81111561159857611597610fca565b5b6115a4858286016112a0565b9150509250929050565b7f4e487b7100000000000000000000000000000000000000000000000000000000600052602260045260246000fd5b600060028204905060018216806115f557607f821691505b60208210811415611609576116086115ae565b5b50919050565b7f4e487b7100000000000000000000000000000000000000000000000000000000600052603260045260246000fd5b7f4e487b7100000000000000000000000000000000000000000000000000000000600052601160045260246000fd5b600061167882611317565b91507fffffffffffffffffffffffffffffffffffffffffffffffffffffffffffffffff8214156116ab576116aa61163e565b5b600182019050919050565b7f596f7520617265206e6f7420616c6c6f7765642062792074686520706174696560008201527f6e7420746f207669657720746865207065726d697373696f6e207265636f7264602082015250565b6000611712604083611065565b915061171d826116b6565b604082019050919050565b6000602082019050818103600083015261174181611705565b9050919050565b7f5065726d697373696f6e2068617320616c7265616479206265656e206469736160008201527f626c656400000000000000000000000000000000000000000000000000000000602082015250565b60006117a4602483611065565b91506117af82611748565b604082019050919050565b600060208201905081810360008301526117d381611797565b9050919050565b7f596f7520617265206e6f74206120726567697374657265642075736572000000600082015250565b6000611810601d83611065565b915061181b826117da565b602082019050919050565b6000602082019050818103600083015261183f81611803565b9050919050565b61184f81610fef565b82525050565b600060608201905061186a6000830186611846565b818103602083015261187c81856110ba565b9050818103604083015261189081846110ba565b905094935050505056fea26469706673582212205359c93c3ae6a6035000e8e03d236ac09957187b080feddf237acd9030ed238a64736f6c63430008090033",
  "linkReferences": {},
  "deployedLinkReferences": {}
}